:020000040800F2
:100000009006002089010008910100089301000872
:100010009501000897010008990100080000000000
:100020000000000000000000000000009B0100082C
:100030009D010008000000009F010008A1010008C8
:10004000A3010008A3010008A3010008A301000800
:10005000A3010008A3010008A3010008A3010008F0
:10006000A3010008A3010008A3010008A3010008E0
:10007000A3010008A3010008A3010008A3010008D0
:10008000A3010008A3010008A3010008A3010008C0
:10009000A3010008A3010008A3010008A3010008B0
:1000A000A3010008A3010008A3010008A3010008A0
:1000B000A3010008A3010008A3010008A301000890
:1000C000A3010008A3010008A3010008A301000880
:1000D000A3010008A3010008A3010008A301000870
:1000E000A3010008A3010008A301000800F002F822
:1000F00000F03AF80AA090E8000C82448344AAF188
:100100000107DA4501D100F02FF8AFF2090EBAE885
:100110000F0013F0010F18BFFB1A43F0010318473B
:10012000580A0000780A0000103A24BF78C878C145
:10013000FAD8520724BF30C830C144BF04680C60ED
:10014000704700000023002400250026103A28BF35
:1001500078C1FBD8520728BF30C148BF0B60704739
:100160001FB51FBD10B510BD00F031F81146FFF7E7
:10017000F7FF00F057FC00F04FF803B4FFF7F2FF71
:1001800003BC00F057F800000948804709480047C1
:10019000FEE7FEE7FEE7FEE7FEE7FEE7FEE7FEE737
:1001A000FEE7FEE704480549054A064B7047000094
:1001B00005060008ED0000089000002090060020D1
:1001C00090020020900200207047704770477546EB
:1001D00000F02CF8AE4605006946534620F00700B3
:1001E000854618B020B5FFF7DDFFBDE820404FF091
:1001F00000064FF000074FF000084FF0000B21F011
:100200000701AC46ACE8C009ACE8C009ACE8C009DD
:10021000ACE8C0098D46704710B50446AFF30080C6
:100220002046BDE81040FFF7A8BF00000048704717
:100230002C00002001491820ABBEFEE7260002007A
:100240007047000070B5054600241FE0802111486A
:1002500000F0F8F81048405D204100F0010028B19E
:100260004FF400710B4800F0EFF80AE00A48405DD7
:10027000204100F0010020B94FF40071054800F062
:10028000E1F88021034800F0DFF8641C082CDDD37E
:1002900070BD0000000C01400F000020014604E08A
:1002A000002000E0401C6428FCD30A1EA1F10101DB
:1002B000F6D170470146002203E0521C0A2091FB50
:1002C000F0F10029F9D10AB900207047501EFCE76F
:1002D00008B501210C2000F0BFF80F20ADF8000098
:1002E00048208DF8030001208DF802006946094876
:1002F00000F014F840F6E370ADF8000010208DF81F
:10030000030001208DF802006946034800F006F85A
:1003100008BD000000080140000C01402DE9F0413B
:10032000024600250026002000230024002791F823
:1003300003C00CF00F0591F803C00CF0100CBCF1D9
:10034000000F03D091F802C04CEA050591F800C0F7
:10035000BCF1000F31D0146800202BE04FF0010CED
:100360000CFA00F3B1F800C00CEA03069E4220D15B
:1003700083004FF00F0C0CFA03F7BC4305FA03FCA3
:100380004CEA040491F803C0BCF1280F06D14FF0E9
:10039000010C0CFA00FCC2F814C00AE091F803C08A
:1003A000BCF1480F05D14FF0010C0CFA00FCC2F86B
:1003B00010C0401C0828D1D31460B1F800C0BCF1B3
:1003C000FF0F34DD546800202EE000F1080C4FF0E0
:1003D000010808FA0CF3B1F800C00CEA03069E42CB
:1003E00021D183004FF00F0C0CFA03F7BC4305FA40
:1003F00003FC4CEA040491F803C0BCF1280F05D1BA
:1004000000F1080C08FA0CF8C2F8148091F803C047
:10041000BCF1480F07D100F1080C4FF0010808FAB1
:100420000CF8C2F81080401C0828CED35460BDE8F8
:10043000F0810246002093680B400BB1012000E0E0
:100440000020704741617047016170470AB1016146
:1004500000E041617047000029B1064A92690243F9
:10046000044B9A6104E0034A92698243014B9A610A
:10047000704700000010024010B500F001F810BDF8
:100480000CB50020019000903348006840F48030A3
:100490003149086000BF3048006800F40030009027
:1004A0000198401C0190009818B90198B0F5A06F10
:1004B000F1D12948006800F4003010B1012000900B
:1004C00001E0002000900098012843D123480068F3
:1004D00040F01000214908600846006820F0030041
:1004E00008600846006840F0020008601A4840684A
:1004F000194948600846406848600846406840F42A
:10050000806048600846406820F47C1048600846D7
:10051000406840F4E81048600846006840F0807089
:10052000086000BF0C48006800F000700028F9D097
:100530000948406820F003000749486008464068C1
:1005400040F00200486000BF0348406800F00C0023
:100550000828F9D10CBD0000001002400020024024
:1005600010B5002100200022214B5B6803F00C0134
:1005700021B1042906D0082928D107E01D4B1E4CC3
:10058000236027E01B4B1C4C236023E0184B5B6867
:1005900003F47010164B5B6803F48032022303EB04
:1005A000904022B9154B4343134C23600DE0104B90
:1005B0005B6803F4003323B1104B43430E4C2360BC
:1005C00003E00C4B43430C4C236003E0094B0A4C03
:1005D000236000BF00BF064B5B68C3F30313084CE6
:1005E000E15C054B1B68CB40034C236010BD000051
:1005F0000010024000127A001800002000093D009F
:100600001C00002010B51348006840F0010011499B
:10061000086008464068104908400E49486008468E
:1006200000680E4908400B4908600846006820F43D
:10063000802008600846406820F4FE0048604FF4BF
:100640001F008860FFF718FF4FF000600449086042
:1006500010BD0000001002400000FFF8FFFFF6FE92
:1006600008ED00E02DE9F04104460D462846FFF76D
:10067000E9FD002629E080212348FFF7E3FE0A2058
:10068000B4FBF0F100FB11402049085C304100F060
:10069000010028B14FF400711B48FFF7D5FE0FE0B1
:1006A0000A20B4FBF0F100FB11401849085C30410E
:1006B00000F0010020B94FF400711348FFF7C2FEAB
:1006C00080211148FFF7C0FE761C082ED3D34FF4CB
:1006D00080710D48FFF7B6FE4FF480710A48FFF7AE
:1006E000B3FE0120FFF7DAFD002D0ADD0A20B4FB7E
:1006F000F0F7681E054601463846FFF7B3FFBDE830
:10070000F0810020FBE70000000C01400000002009
:1007100010B50446002201216348FFF797FE01222D
:1007200002216148FFF792FE012291025E48FFF725
:100730008DFE0122D1025C48FFF788FE24B9012119
:100740005A48FFF776FEA0B1012C04D10221574888
:10075000FFF76FFE68B1022C04D104215348FFF764
:1007600068FE30B1032C06D108215048FFF761FE26
:1007700008B9002010BD012211464B48FFF766FE64
:10078000002202214848FFF761FE012291024648FB
:10079000FFF75CFE0122D1024348FFF757FE24B960
:1007A00001214248FFF745FEA0B1012C04D10221EE
:1007B0003E48FFF73EFE68B1022C04D104213B48BD
:1007C000FFF737FE30B1032C06D108213748FFF779
:1007D00030FE08B90120CDE7012211463248FFF76B
:1007E00035FE012202213048FFF730FE00224FF48F
:1007F00080612D48FFF72AFE0122D1022A48FFF727
:1008000025FE24B901212948FFF713FEA0B1012CD0
:1008100004D102212548FFF70CFE68B1022C04D157
:1008200004212248FFF705FE30B1032C06D1082130
:100830001E48FFF7FEFD08B902209BE70122114682
:100840001948FFF703FE012202211748FFF7FEFDBA
:10085000012291021448FFF7F9FD00224FF40061D4
:100860001148FFF7F3FD24B901211048FFF7E1FD1E
:10087000A0B1012C04D102210C48FFF7DAFD68B1C8
:10088000022C04D104210948FFF7D3FD30B1032C19
:1008900006D108210548FFF7CCFD08B9032069E718
:1008A0004FF0FF3066E70000000C014000080140F7
:1008B00070B504462046FFF7C5FC00251FE08021E7
:1008C0001B48FFF7BFFD1B48005D284100F00100F9
:1008D00028B14FF400711648FFF7B6FD0AE015483D
:1008E000005D284100F0010020B94FF4007110486C
:1008F000FFF7A8FD80210E48FFF7A6FD6D1C082D0F
:10090000DDD34FF480710A48FFF79CFD4FF48071EE
:100910000748FFF799FD0120FFF7C0FC002C05DD1B
:10092000611E0C460846FFF7C3FF70BD0020FCE7C0
:10093000000C01400B0000202DE9F047074600267F
:10094000B14659E0002240F603413248FFF77EFDF0
:1009500001213148FFF76DFD10B90025A8461CE0C4
:1009600002212D48FFF765FD18B901254FF0000859
:1009700013E004212848FFF75CFD18B902254FF069
:1009800000080AE008212448FFF753FD18B90325A1
:100990004FF0000801E04FF00108B8F1000F21D13D
:1009A000B9F1010F1ED12846FFF7B2FE04461B48DD
:1009B00000EB041050F82500092806DD174800EB6D
:1009C000041050F82500386017E01548864200DD15
:1009D00012E0124800EB041050F8250006EB8601E7
:1009E00000EB41063046FFF765FC82465146304633
:1009F000FFF738FEC14600BFA4E700BF3046FFF74F
:100A000059FC824651463046FFF72CFE3046BDE881
:100A1000F0870000000C014000080140380B00087E
:100A2000FFE0F50508B5FFF7EDFDFFF799FDFFF7CE
:100A30004FFC0C25002600243046FFF73BFC074600
:100A400039463046FFF70EFE71E00C2D05D16846A1
:100A5000FFF772FF0646344468E00D2D05D1684665
:100A6000FFF76AFF0646A41B60E00A2D05D1684621
:100A7000FFF762FF0646744358E00B2D06D1684627
:100A8000FFF75AFF064694FBF6F44FE00E2D08D10F
:100A90006846FFF751FF064694FBF6F006FB10444C
:100AA00044E00F2D42D14FF0000838E042F20F70C1
:100AB000844203DD0320FFF7FBFE07E02046FFF73B
:100AC000F9FB814649462046FFF7CCFD002240F65F
:100AD00003411748FFF7BAFC01211648FFF7A9FCAC
:100AE00008B9002715E002211248FFF7A2FC08B957
:100AF00000270EE004210F48FFF79BFC08B90027F0
:100B000007E008210B48FFF794FC08B9002700E034
:100B100001271FB9B8F1010F00D101E0B846C5E7C0
:100B200000BF002400260C20009000BF009D8CE731
:100B3000000C01400008014001000000020000001C
:100B4000030000000C00000004000000050000008D
:100B5000060000000D000000070000000800000073
:100B6000090000000E0000000A0000000000000064
:100B70000B0000000F000000980B00080000002090
:100B80002C00000028010008C40B00082C000020E5
:100B90006406000044010008FC60DAF266B6BEE0BC
:100BA000FEF6FF8E7C1C1C7FBFDFEFF7FBFDFE0017
:100BB00000A24A040000000000000000010203043B
:040BC0000607080913
:04000005080000ED02
:00000001FF
